:10800000F0450020E1EF0000DDEF0000DDEF0000B3
:108010000000000000000000000000000000000060
:10802000000000000000000000000000DDEF000084
:108030000000000000000000DDEF0000DDEF0000A8
:10804000DDEF0000DDEF0000DDEF00007D890000C6
:1080500031B50000DDEF0000DDEF0000DDEF0000D6
:10806000DDEF000065B4000075B4000085B40000C9
:1080700095B40000A5B40000B5B400000590000060
:108080001590000025900000DDEF0000DDEF0000FE
:10809000DDEF00000000000000000000DDEF000048
:1080A000DDEF0000DDEF0000DDEF0000DDEF0000A0
:1080B0000000000010B5064C2378002B07D1054BBB
:1080C000002B02D0044800E000BF0123237010BD44
:1080D000E001002000000000442B0100084B10B517
:1080E000002B03D00749084800E000BF0748036899
:1080F000002B00D110BD064B002BFBD09847F9E7B1
:1081000000000000E4010020442B0100442B01008A
:108110000000000030B585B004000023039305681B
:108120002F4B98472B79002B56D101332B712D4BB8
:1081300098479F2201AB1A706279D1090023002968
:1081400004D15309DB0128498C4663441F211140A7
:1081500001228A405A61012201A92068234B9847D5
:108160000023032203A92068214DA8476279D10981
:108170000023002904D15309DB011B498C466344C9
:108180001F21114001228A409A6100232268137145
:108190002379092B15D89B00164AD3589F46164BB6
:1081A00012E0164B10E0164B0EE0164B0CE0164B8F
:1081B0000AE0164B08E0164B06E0164B04E0164B9F
:1081C00002E0002300E0154B039A9A4202D01420EB
:1081D00005B030BD0020FBE7024B98470520F7E7CC
:1081E00075E70000B5E7000000440041C1AF0000A2
:1081F000B1AD0000881401001F4300001F440100BE
:108200001F4502001F4501001F4602001F460300D4
:108210001F8600001F4701001F4800001F65000067
:10822000F0B585B004000E0001921F005A180379C2
:10823000092B15D89B003249CB589F468023DB027F
:1082400012E080231B030FE080235B030CE08023FC
:108250009B0309E08023DB0306E080231B0403E08B
:10826000002301E080235B0217209A4201D905B068
:10827000F0BD2568234B98472B79002B3CD1013367
:108280002B71214B98470B2302AA1370D670330A27
:108290009370360C56706279D1090023002904D1FD
:1082A0005309DB0119498C4663441F211140012207
:1082B0008A405A61052202A92068154B9847002F71
:1082C00013D16279D1090023002904D15309DB01BC
:1082D0000E498C4663441F21114001228A409A6155
:1082E000236800221A710020C1E700233A00019997
:1082F0002068084DA847E4E7034B98470520B6E7F8
:10830000B014010075E70000B5E70000004400412B
:10831000C1AF0000B1AD0000F0B5DE4657464E4695
:108320004546E0B585B005000E0001921F005A18C1
:108330000379092B15D89B00AE49CB589F46802363
:10834000DB0212E080231B030FE080235B030CE0C1
:1083500080239B0309E08023DB0306E080231B04CA
:1083600003E0002301E080235B0217209A4206D934
:1083700005B03CBC90469946A246AB46F0BD2C6881
:108380009D4B98472379002B00D02EE101332371B8
:108390009A4B9847062302AA13706A79D1090023E1
:1083A000002904D15309DB0195498C4663441F2100
:1083B000114001228A405A61012202A92868914B8A
:1083C00098476A79D1090023002904D15309DB01B8
:1083D0008B498C4663441F21114001228A409A61D7
:1083E000FF22324080235B009B1A1A1C9BB2BB42C7
:1083F00000D93A1C93B29A46022302AA1370D6708F
:10840000330A9370330C53706A79D1090023002921
:1084100004D15309DB017A498C4663441F21114082
:1084200001228A405A61042202A92868754B9847A4
:108430005346002B45D16A79D1090023002904D184
:108440005309DB016E498C4663441F211140012210
:108450008A409A612B68196801220B7E1342FCD076
:108460006A79D1090023002904D15309DB01644949
:108470008C4663441F21114001228A405A612B68B7
:108480001B681A7ED20701D505229A622868026805
:108490000421137E0B42FCD0137E00245B0709D518
:1084A000538B5B0701D5042353838379012B0ED0B3
:1084B000946AE4B20121002398460420B4462E00B9
:1084C00010E05246019928684E4B9847B3E7936AEB
:1084D000DB05DC0DEEE7AB79012B1AD0946AE4B230
:1084E00021421AD033681A68137E0B42FCD0137EE7
:1084F0000B4201D04346936235682A68137E0342DB
:10850000FCD0137E0342EBD0538B0342E3D0508365
:10851000E1E7946AE405E40DE2E7350066466A792E
:10852000D1090023002904D15309DB0134498C46C9
:1085300063441F21114001228A409A611020A30642
:108540004FD45346FF1ABBB21900019A914600203E
:10855000002B46D01F239B4601242A4B98465346A6
:1085600001938A4658E01A0049462868254B9847E7
:10857000A4E0906AC005C00DE1E0BB79012B1AD0E0
:10858000906AC0B204421AD02B681A68137E234244
:10859000FCD0137E234201D0002393622F683A68F7
:1085A000137E0B42FCD0137E0B42EBD0538B0B425D
:1085B000E3D05183E1E7906AC005C00DE2E76B7933
:1085C000D9090022002904D15A09D2010C498C464C
:1085D000624459460B40210099409161830613D5AE
:1085E00010202B6800221A71C2E6044B9847052020
:1085F000BEE6C046DC14010075E70000B5E70000E8
:1086000000440041C1AF00005346019A9B1A9BB23F
:108610009A46002B00D194E002AB06221A706B79C7
:10862000D9090022002904D15A09D20146498C46B1
:10863000624459460B40210099405161220002A931
:108640002868C0476B79D9090022002904D15A094A
:10865000D2013D498C46624459460B402100994065
:108660009161019A94466644E144574680235B0039
:108670009A4501D9354B1F88BBB20193022302AA48
:108680001370D670330A9370330C53706B79D90919
:108690000022002904D15A09D2012B498C46624498
:1086A00059460B40210099405161042202A92868D3
:1086B000274B9847019B002B00D054E76B79D909D1
:1086C0000022002904D15A09D2011F498C46624474
:1086D00059460B402100994091612B681A68137E1E
:1086E0002342FCD06B79D9090022002904D15A0910
:1086F000D20115498C46624459460B4021009940ED
:1087000051612B681B681A7E224201D005229A62B1
:108710002B689C461A680421137E0B42FCD0137E02
:1087200000205B070BD5538B5B0701D504235383D4
:1087300063469B79012B00D11BE7906AC0B20421EC
:1087400022E700204DE7C04600440041D814010054
:10875000C1AF000030B583B0040005681C4B9847DA
:108760002B79002B2ED101332B711A4B9847B9234B
:108770006A4613706279D1090023002904D1530994
:10878000DB0115498C4663441F21114001228A40B8
:108790005A61012269462068104B98476279D109D5
:1087A0000023002904D15309DB010B498C466344A3
:1087B0001F21114001228A409A61236800221A7108
:1087C000002002E0034B9847052003B030BDC046AF
:1087D00075E70000B5E7000000440041C1AF0000AC
:1087E00030B583B0040005681C4B98472B79002BEB
:1087F0002ED101332B711A4B9847AB236A46137065
:108800006279D1090023002904D15309DB011549FC
:108810008C4663441F21114001228A405A61012283
:1088200069462068104B98476279D10900230029D6
:1088300004D15309DB010B498C4663441F211140CD
:1088400001228A409A61236800221A71002002E006
:10885000034B9847052003B030BDC04675E70000C4
:10886000B5E7000000440041C1AF0000044A13789E
:1088700002210B43137053785BB2002BFBDB704774
:108880000018004000B583B0124A936940210B43A1
:10889000936101A900230B7005200F4B9847052019
:1088A0000E4B98470E4A137801210B4313705378EF
:1088B0005BB2002BFBDB0B4B19004031002204C3E1
:1088C0009942FCD11022084B1A60084B984703B01C
:1088D00000BDC0460004004085EE0000F9ED000038
:1088E000001800401C03002000E100E06D8800003B
:1088F00000230360436001220272427283720233DA
:10890000C3727047F0B583B005000C0001A90023C5
:108910004B70CB7023790B70237A8B702078154BBA
:10892000984700201F2D00D8134807222A409200A4
:10893000E77AA37A002B01D008231F43EB089B00A2
:10894000C31899690F269640B14397403A000A43ED
:108950009A61637A002B06D143690122AA409343AE
:10896000436103B0F0BD42690123AB40134343614F
:10897000F7E7C0467DEF00000018004010B5144B2B
:108980001A681468D18A938A1940207AE3790340DF
:1089900058B2002806DBD8070FD5CB070AD401232D
:1089A000237210BD4B0702D480232372F9E71369A9
:1089B0009847F9E793689847F1E79B07F1D58B074C
:1089C00002D402232372ECE7D3689847F9E7C04644
:1089D0005C030020094B98420CD0094B984207D009
:1089E000084A0023904201D018007047023302E089
:1089F000012300E00023DBB2F6E7C046002000427E
:108A0000002400420028004210B5040008004F4B2B
:108A100098470023236080004D4A82586260A37209
:108A2000E372237363722372E36123626362A3625E
:108A300023756375A375E375237663762374637476
:108A4000A374E3742C22A3540132A3540132A3541F
:108A50000132A3540132A3540132A3540132A3546E
:108A60000132A3540132A3540132A3540132A3545E
:108A70000132A3540132A3540132A3540132A3544E
:108A80000132A3540132A3540132A3540132A3543E
:108A90000132A3540132A3540132A3540132A3542E
:108AA0000132A3540132A3540132A3540132A3541E
:108AB0000132A3540132A3540132A3540132A3540E
:108AC0000132A3540132A3540132A3540132A354FE
:108AD0000132A3540132A3540132A3540132A354EE
:108AE0000132A3540132A3540132A3540132A354DE
:108AF0000132A3544132A354A365A3670132A354A6
:108B0000E365E3670132A35423661A3AA3501B328C
:108B1000A3546366173AA3501832A354A366143AB9
:108B2000A3501532A354E366113AA3501232A35452
:108B300023670E3AA3500F32A35463670B3AA35036
:108B400001210C32A1540132A35410BDD58900007B
:108B500018150100F0B5DE4657464E464546E0B5CD
:108B600091B001900C0015000800C34B984703001A
:108B70000100C248026A9E00C14FF7593A4302629F
:108B800022681C20920706D511B03CBC904699463D
:108B9000A246AB46F0BD226801271740F4D1B94880
:108BA000325817202E68B242EED36E68B242EBD331
:108BB000E869824200D2B9E1286A824200D2B7E174
:108BC000686A824200D2B5E1A86A824200D2B3E16B
:108BD00098229446AC4462460892002003E001309B
:108BE0000132082808D01678002EF8D0A64E765C00
:108BF0008642F4DC1720C7E700220292802040045E
:108C0000844602E00132042A0ED0A818007C012814
:108C1000F8D19E48405C904200DA8FE16046904077
:108C2000029E06430296EDE79D32AA5C002A04D01C
:108C3000802212010299114302912A7A511E8A411F
:108C4000920006926A7A012A22D0904AD25C1100E0
:108C500005923522AA5C8A4200D379E12C21695C15
:108C60000F2900D974E1287B0A90E87A0B902D2017
:108C70008246AA44002004970EAE0796C02636010D
:108C8000B1468446A046280055460993824635E001
:108C9000069911430691D8E792024F463A400A439B
:108CA00019798B4603215F4639400A4316435A79A6
:108CB000520160210A40324399790902C026B60068
:108CC0000E401643DA791203E021C9010A40164327
:108CD0003443039A14432043624607995050042AB0
:108CE0002AD09A7C0599914200D831E1597A0A3507
:108CF00004239B46DC440F2900D929E10906F0230F
:108D00001B0519402B002E783604FF200004064076
:108D100068788024002800D1049C9878082703975D
:108D2000002801D104980390D878834610205F462C
:108D3000002FB1D10498AFE744465546099B524AEB
:108D4000D25C9146514650315046413000270022B6
:108D50000126B2460226FF36B34680267602B0468A
:108D6000A4461C004B460FE00678002E07D0934225
:108D700000D8E7E0022E14D0564696403743013221
:108D800001310230082A10D00E78002EECD0934228
:108D900000D8D5E04646964037430678002EE9D104
:108DA000EDE75E4696403743E9E79946230064467F
:108DB0006A7E120130211140287E072202401143B1
:108DC0000022802040020E0002E00132042A0BD073
:108DD000A918097D0029F8D00599914200DCB3E07B
:108DE000010091400E43F0E7B246019802000432C0
:108DF0003430002102C28242FCD100220198426339
:108E000082639900224A88500460A022A95C643AD7
:108E100081540DA9AA7A0A701E4AD65C30001E4BF6
:108E2000984730001D4B98474B46002B3CDD2E00E9
:108E3000583698339846A84401239946AB46454690
:108E4000A046089C03E001340436AC422AD02378C3
:108E5000002BF8D00CAB4A469A7000230CAAD370B2
:108E600013002022B21812781A704A465A703078CD
:108E700019000B4B9847E6E7D58900000004004035
:108E8000041501001815010024150100101501003A
:108E9000600300201415010085EE0000F9ED0000CC
:108EA0007DEF000044465D460A9B1B030B9A1202AD
:108EB0001343029A134323600422A3681A42FCD18D
:108EC000FF2323710422A3681A42FCD16B461B7E48
:108ED00063710E9BE3600F9B2361A7611D4AA3682A
:108EE0001342FCD15346E3631022A3681A42FCD11B
:108EF0002B686363184AA3681342FCD16B68236430
:108F00000598002822DD1C350021144E32008A40CD
:108F1000A3681A42FCD104CD0B0010339B00E31868
:108F20005A6001318842F1DC00202DE617202BE643
:108F3000172029E6172027E6172025E6172023E625
:108F4000172021E617201FE617201DE600201BE64C
:108F5000172019E64000020080000400000108000C
:108F6000920083185960034BD358426B13434363F9
:108F7000002070472815010070B504000D0000683E
:108F8000094B9847094B1B5C1F221A400123934051
:108F9000074A1360AD00074BEA58A36B1343A36362
:108FA00023689A6270BDC046D5890000581501003B
:108FB00000E100E028150100F0B5C64600B58000CC
:108FC0000E4BC7583B68DE6ABB6B7A6B13401E4082
:108FD00000240B4B984602E00434302C0AD0434660
:108FE000E5583542F8D03B195B68380098473B6834
:108FF000DD62F1E704BC9046F0BDC046600300208E
:109000002815010010B50020014B984710BDC0463F
:10901000B98F000010B50120014B984710BDC04624
:10902000B98F000010B50220014B984710BDC04613
:10903000B98F0000F0B5DE4657464E464546E0B5CE
:1090400087B08046049116001F00002200230021F3
:109050008B463F2401202100009601975C46039433
:109060004446059413E02024641A0500E540A84610
:1090700014E0009C019D121BAB415C464D462C4305
:10908000A346039C45462C430394013925D3202451
:1090900064420C19E7D40500A540A84604008C40A2
:1090A000A14692185B4114001D00059E4F463E40AC
:1090B000B446049E47463E40B246664657463E4347
:1090C00003D00600264332002B00009C019D9D42E8
:1090D000DBD8CED19442D8D8CBE7039B58461900B1
:1090E00007B03CBC90469946A246AB46F0BD10B5D1
:1090F000490840230024814202D2180010BD1C0000
:10910000091A631C9BB28842F9D94023FF2CF4D87A
:1091100014800023F1E70000F0B583B00F001600C3
:1091200008AA117804004C434022BC4202D9100026
:1091300003B0F0BD002B14D1020008000021194C2F
:10914000A04701003A0000230020174CA04700224E
:109150000123121A8B41120C1B041A433280002285
:10916000E5E70022012BF9D10A00002300210D4C74
:10917000A04702000B0000920193380000210A4C26
:10918000A047050080239B0140229842CFD8790F49
:10919000F800009A019BA047EA00821AD2B252035B
:1091A0002A43DBE7A5FC00003590000010B582B033
:1091B00004000E4B1B78002B07D0002905D10B4B68
:1091C0005B78834210D01D200CE001A90C701320A5
:1091D000074B98471320074B9847044B5C700122BC
:1091E0001A70002002B010BD0020FBE7FC01002037
:1091F00085EE0000F9ED0000404B984231D00AD9CD
:109200003F4B98424DD03F4B98425AD03E4B9842EC
:1092100037D0002070473D4B98420CD03C4B9842D1
:10922000F7D1012917D000295DD0022915D00329D3
:1092300015D00020EEE7012907D0002951D00229DE
:1092400005D0032905D00020E4E73248E2E73248A0
:10925000E0E73248DEE73248DCE73248DAE7324816
:10926000D8E7012907D000293FD0022905D00329DA
:1092700005D00020CEE72D48CCE72D48CAE72D4881
:10928000C8E7012907D0002931D0022905D00329D8
:1092900005D00020BEE72848BCE72848BAE72848A0
:1092A000B8E7012907D0002923D0022905D00329D6
:1092B00005D00020AEE72348ACE72348AAE72348BF
:1092C000A8E7012907D0002915D0022905D00329D4
:1092D00005D000209EE71E489CE71E489AE71E48DE
:1092E00098E71E4896E7032094E71D4892E71D483B
:1092F00090E71D488EE71D488CE7C04600100042ED
:1093000000180042001C0042001400420008004205
:10931000000C0042030005000300060003000700E4
:109320000300010003001E0003001F0003000900EA
:1093300003000A0003000B000300110003001200E9
:109340000300130003000D0003000E0003000F00D4
:1093500003001700030018000300190003000400B5
:10936000030008000300100003000C0003001600B7
:1093700030B587B00B4B6A4632CB32C232CB32C2E9
:10938000009B83420BD001239A00694652588242C7
:1093900006D00133062BF7D1002007B030BD0023E3
:1093A000D8B2FAE75C150100F0B5C64600B50C006E
:1093B000904600280FD1002A11DD8F18094E0A4D62
:1093C000306821002B6898470134BC42F8D14046F0
:1093D00004BC9046F0BD01235B429846F7E7804607
:1093E000F5E7C046740300206C030020F0B5C646C4
:1093F00000B50E0015000138022810D8002A11D03F
:1094000000240C4B98460C4F43461868315D3B686E
:109410009847002808DB0134A542F5D106E0012475
:10942000644203E0140001E001246442200004BC13
:109430009046F0BD7403002070030020F8B50400CE
:109440004120235C01252B43235492B20020205657
:109450000023124DA847002816DB4123E35CDB07FD
:1094600018D5E36E0020022B17D90D4F0D4E412564
:109470000020B847606DB047635DDB070CD5E36E35
:10948000022BF5D8002008E04122A35C01218B4388
:10949000A35402E0002000E00020F8BD1DE400001D
:1094A000B9C60000D1A500005023038000238370BB
:1094B000054A02814360C3600133FF330361AE3B61
:1094C0004361024B83617047204E00003C1701004E
:1094D00070B504000D00002838D0002939D00B6980
:1094E000002B39D04B68002B39D04B69512B39D91F
:1094F000E82200211E4B9847200050301C222900F2
:109500001C4B9847E36D002B08D02B89002B11D101
:109510000023E366D822A350002070BD2869164BB3
:109520009847E065002820D04122A35C04210B432A
:10953000A354EAE76868002322001049104DA847A9
:10954000A0640028E4DA1C204042E6E716204042EE
:10955000E3E716204042E0E716204042DDE7162010
:109560004042DAE716204042D7E70C204042D4E7D9
:10957000ABFD000075FD00004DFD0000959600005C
:109580005DA50000002802D0C164002070471620AD
:109590004042FBE7F0B585B004000E00C023C3587D
:1095A000002B02D0C422805898472000B0301822E7
:1095B0000021174B9847E36E002B24D10023E3567C
:1095C0009B000025134A9D5020006C306C22002126
:1095D0000F4FB8472000D83010220021B847E56669
:1095E000D823E5504122A35C01218B4301318B43F9
:1095F000A3540196E36C002B03D001AA0231200092
:10960000984705B0F0BD00202056034B9847D5E79A
:10961000ABFD00000002002049E50000F0B587B076
:1096200000900191174C26001C36174F15E00223BD
:1096300002AA13804E33EB5A1A021B0A134302AAE2
:109640005380019B039300202856102202A90F4B40
:10965000984715E00434B44212D02568002DF9D0A3
:10966000691C0098B8470028F4D1EB6E012BF1D1AA
:10967000019B002BDBD1762149422800044B9847FF
:1096800007B0F0BD00020020110201008DE30000D0
:109690009595000010B5002A04D03E2149421000E3
:1096A000014B984710BDC04695950000F0B5DE46C9
:1096B000574680B595B002AF0400EB461022B24980
:1096C000102308203818C018B04B9847626ED31D7D
:1096D000DB08DB006946CB1A9D4602AE002C00D1A8
:1096E000F1E14123E35CDB0700D5ECE1E36E032B02
:1096F00004D0042B00D120E1DD46E5E10023CC219C
:109700006350043163500094A14B31002C20082594
:10971000AC46BC4460449F4DA847C823E35C012B82
:1097200000D1A9E0022B00D1AFE0032B00D1B5E0BE
:10973000042B00D1BBE0052B00D1C1E0062B00D1EA
:10974000C7E0250070352800934B9A4698470200E1
:1097500029002C2308203818C018904DA8470B2248
:109760008F492C2308203818C018A8470C228D498F
:109770002C2308203818C018A847A36E7B60180057
:10978000D047020079682C2308203818C018A84751
:10979000022285492C2308203818C018A847062221
:1097A00082492C2308203818C018A847631C7B6006
:1097B0001800D047020079682C2308203818C018F8
:1097C000A847022278492C2308203818C018A84737
:1097D000182277492C2308203818C018A8471322CC
:1097E00074492C2308203818C018A847172272493A
:1097F0002C2308203818C018A8472300B033DB6892
:10980000002B7BD0B023E35C002B6BD12300B03363
:109810009B68002B72D02200B03250699847CC234D
:10982000E050002800DAACE0020064492023082060
:109830003818C018624B9847102262492C23082020
:109840003818C018554DA84720230822BA18D01838
:10985000514B98470200202308217918C9180C336E
:1098600008203818C018A84702224F492C23082086
:109870003818C018A84741E0042253492B33082068
:109880003818C018454B98475BE705224F492A33E3
:1098900008203818C018414B984752E707224C4916
:1098A000293308203818C0183C4B984749E7042250
:1098B0004849283308203818C018384B984740E7E3
:1098C00008224549273308203818C018334B9847D9
:1098D00037E705224149263308203818C0182F4B96
:1098E00098472EE701225242CC23E2501D323C49D8
:1098F000A03B08203818C018284B9847D423E558B7
:10990000002D0AD02800244B9847020029002C2360
:1099100008203818C018214B9847022222492C23CE
:1099200008203818C0181D4B98472C230822BA1855
:10993000D0182C4B98470423E366CC23E258002A26
:1099400052DB00DCF1E02300B033DD68002D00D1F4
:10995000EBE0D023E3589A4200DDBBE0C023E3589C
:10996000002B02D0C422A05898470223E366E36C80
:10997000002B00D1C0E60C22BA1801212000984724
:10998000BAE60022E250B9E72416010075FD000096
:109990003D94000009A400006F0201005DA40000D6
:1099A00098160100A4160100B0280100B4160100A9
:1099B000BC160100D8160100EC16010024170100A6
:1099C000CD01010028170100641601006C1601008A
:1099D000741601007C160100841601009016010027
:1099E0000417010019A400002300B033DD68002D26
:1099F00000D19AE0D023E358626E073A711D20002F
:109A0000B0304069A8470500C343DB171D400A2258
:109A100032710D21F170731959719A710F232B4016
:109A2000063205398C46BC446244D35CB370B11C29
:109A30000F2D0DDD711CEB170F2213405B191B114D
:109A40001340013208208446BC446244D35C7370E6
:109A5000FF2D0DDDEA17FF2313405B191B051B0FBC
:109A6000102208218C46BC446244D35C3370310020
:109A7000CA1C921B2B1DD21892B200202056002324
:109A8000304EB047002819DBD022A3585B19A350F1
:109A9000002D00D030E6C023E358002B02D00C3A52
:109AA000A05898470223E366E36C002B00D123E61D
:109AB0000C22BA180121200098471DE605214942D1
:109AC0002000214B9847DD46BD4613B00CBC9246A2
:109AD0009B46F0BD2200B0325069626E3100A8474B
:109AE000002816DBCC23E5580433E358ED1A8542F1
:109AF00000DD0500AAB20020205600233100114EDF
:109B0000B04700280BDBD023E25894466544E5506B
:109B1000F2E50521494220000B4B9847ECE5052171
:109B200049422000084B9847CDE70223E366E36CE7
:109B3000002B00D1E0E50C22BA1801212000984743
:109B4000DAE5C0461DE4000095950000F0B5D64664
:109B500000B588B004000F0092460393002800D19E
:109B6000D3E0C36E022B00D9D3E00722814938002D
:109B7000814B98470726002807D008227F493800E4
:109B80007D4B984746424641F600631CBD1902933F
:109B900018007B4B9847020029000298764B9847A3
:109BA00001902B78002B52D02F2B52D0711C79189A
:109BB00000220132A3540D000B78002B02D001319A
:109BC0002F2BF6D1A218002353706378002B00D1FD
:109BD000A3E028006A4B98473F2800D9A1E0D4238E
:109BE000E058002801D0674B98470E9B002B32D0DD
:109BF0001800654B9847D423E050002800D194E02A
:109C00004122A35C01218B43A354002363642B787E
:109C10002F2B24D02F227023E2542B78002B24D119
:109C2000039B002B27D02000B03018221900574B7F
:109C30009847C8235246E254E36E012B22D0002BF2
:109C400027D0022B3AD00B235B4201938DE00022F8
:109C5000B8E70022B6E70022D423E250D0E7200084
:109C6000703029004A4B9847DAE72900200071300C
:109C7000474B9847D4E72000B03018220021454BCD
:109C80009847D6E7019B002B6FD000212000424B64
:109C900098475223E25C531E9A41D2B2012102201E
:109CA0003E4B98472070002843DB80003C4BC4505B
:109CB000029D00212026012030270CE0019B002B73
:109CC000E3D10333E3662000364B98474DE000298B
:109CD00001D012E001002A78002A2ED001351300AD
:109CE000B343413B052BF5D93A2A0AD02F2A0AD093
:109CF0002E2AECD03A40302AEDD002982A4B9847D1
:109D00002FE00100E7E70100E5E716235B4201933E
:109D10002BE010235B42019327E016235B42019363
:109D200023E05B235B4201931FE00C235B42019322
:109D30001BE01C235B42019317E0022304AA13805B
:109D40004E33E35A1A021B0A134304AA53800298A3
:109D5000164B9847059000202056102204A9144B5A
:109D600098470123E36600230193019808B004BCDF
:109D70009246F0BD481701007D0201005017010016
:109D80006F02010061FD00003502010075FD000059
:109D900025020100ABFD00009595000009E20000DE
:109DA00000020020AD96000051E60000E5E500004D
:109DB0008DE3000010B500280DD0416C026E914279
:109DC0000AD2521A92B2C36D9C466144007840B2E6
:109DD0000023044CA04710BD8B214942024B9847F9
:109DE000F9E7C046B5E400009595000070B50500A0
:109DF000C06D6B6C5C1A0419002C02DC00236B64D0
:109E000070BD2200014B98476C64F9E787FD0000A4
:109E1000F0B5CE4600B584B00700C46D624B9946DC
:109E200049E021003800614B98470026300004B01B
:109E300004BC9146F0BDA11C38005C4B9847FB6CFC
:109E4000002B0AD0E422B95A002906D0083AB858A3
:109E5000002807DB3A6E904210DC0122D823FA502A
:109E60000126E3E701AA1180012191700021E02081
:109E700039509160023138009847EEE701AA11800D
:109E8000506000219160E02039500231380098473D
:109E9000E3E720001030464B9847DC23F85009E0F8
:109EA0000132954206D01378202B2BD1F8E7213AC6
:109EB0008933FA50AC1C3F492000C847051EB0D07A
:109EC000FB6D7A6C944663449842AAD202223949C7
:109ED0002000394B98470028ADD010223749200088
:109EE000354B98470028D4D0132235492000324BF7
:109EF0009847061E10D1220013329542DAD9E37C2E
:109F0000202BCDD020229343432BD0D08621494211
:109F100038002C4B984789E70C222B492000264B10
:109F2000984700281DD122000C329542C2D9237BCC
:109F3000202B09D0202293434B2B0CD04122BB5C19
:109F400002218B43BB54B5E701329542B2D013785E
:109F5000202BEFD1F8E72132BB5C02210B43BB542D
:109F6000A8E7052219492000134B98470028A1D1E2
:109F7000200009300E4B9847E423F8520022083B9A
:109F8000FA506379312B02D8E379302B05D941227D
:109F9000BB5C02210B43BB548CE74122BB5C02211A
:109FA0008B43BB5486E7C0469F020100ED9D000035
:109FB000F9FC0000B02801007D0201002817010013
:109FC00038160100959500004C1601005C16010042
:109FD000F0B5CE4600B586B00400C56DDC23C3588D
:109FE000002B69DB026E93422BDC0020626C9342F3
:109FF0004EDCE66C002E03D0E422A15A00290ED1DB
:10A000000023D822A3500C32A3524133E35C9B07B8
:10A010000FD400212000714B9847002038E003AA9C
:10A020001180002191705360956002312000B0478B
:10A03000E6E7DC23E15869182000694B9847606C1B
:10A0400026E0426C03920495E02140588446624425
:10A050006250934220DC0023D822A3500C32A3523A
:10A06000E33A03AB1A72E36C002B07D003AE320065
:10A07000032120009847337A012B03D14123E35C6D
:10A080009B0710D5636CE9182000554B98470020BA
:10A0900006B004BC9146F0BD002203AB1A72E36C1B
:10A0A000002BEFD0E2E74F484F4B984700212000AC
:10A0B0004A4B98470020EBE7476C00239946E0267F
:10A0C0000AE04123E35C9B071BD5A91C2000444BFD
:10A0D0009847636C002B73D0A359002B30DB16D14B
:10A0E000D822A3500C32A352E33A69460A72009375
:10A0F0000193E36C002BE4D06A46032120009847CB
:10A10000DFE700212000354B98470020C0E7BB4225
:10A11000DFDC0093019500236A461372E36C002B89
:10A1200002D0032120009847A359991C69182000E8
:10A130002B4B9847676CE56D01235B42A351C8E741
:10A140000023A351002F04DD2B780A2B1CD10135ED
:10A15000013FA359226E934239DC002FB9D101226D
:10A160005242E023E250D0E71A00613A052A18D89B
:10A17000A2591201D318613BA3510135013F002FB1
:10A1800020D02B780A2BE2D04A46002AF5D11A00BB
:10A19000303A092AE8D8A2591201D318303BA3510A
:10A1A000EBE71A00413A052A05D8A2591201D31843
:10A1B000413BA351E1E73B3B5A425A419146DCE720
:10A1C000002065E7E023E358226E9342C7DD8B2130
:10A1D00049422000014B984797E7C04695950000FB
:10A1E000ED9D0000341601002900010010B5D823B0
:10A1F000C358002B03D0012B04D0002001E0034BF7
:10A20000984710BD024B9847FBE7C046119E0000DF
:10A21000D19F000070B50400436C9C4661444164CA
:10A220005823C35A002B05D1054D2000A84700280C
:10A23000FBD170BD816C406D024B9847F4E7C0467E
:10A24000EDA10000C1A5000010B584B08000654BF1
:10A25000C458002C06D0062951D0072900D18AE025
:10A26000052901D004B010BD0123D3561A1E019355
:10A2700015DBE36C002B03D001AA002120009847D6
:10A280000323E3665533E25AA16C606D564B984741
:10A290002000564B98472000554B9847E2E70E3375
:10A2A000D9B20E291ED88B005249CB589F460221A5
:10A2B00049421DE0702149421AE00C21494217E051
:10A2C0001621494214E00C21494211E0792149420A
:10A2D0000EE0682149420BE00B21494208E01021C1
:10A2E000494205E0002A07DB002101E0052149423F
:10A2F0002000414B9847B5E705214942F8E7042380
:10A30000D15E002906DD20003C4B98472000374BEA
:10A310009847A7E70B000E339AB20E2A1ED8930077
:10A32000374AD3589F46022149421DE070214942D5
:10A330001AE00C21494217E01621494214E00C2191
:10A34000494211E0792149420EE0682149420BE07F
:10A350000B21494208E01021494205E0002907DBB2
:10A36000002101E0052149422000234B9847CDE719
:10A3700005214942F8E70023D35E002B08DB2000CB
:10A380001B4B98474122A35C01218B43A35469E7EF
:10A390000E339AB20D2A1ED893001A4AD3589F46FC
:10A3A0000221494219E07021494216E00C2149423C
:10A3B00013E01621494210E00C2149420DE07921B9
:10A3C00049420AE06821494207E00B21494204E082
:10A3D0001021494201E0052149422000064B9847DF
:10A3E000D0E7C0460002002095A50000B59D000002
:10A3F000AD960000741501009595000015A20000AF
:10A40000B0150100EC1501000260016100224260FC
:10A410008360009BC360704710B504004268002A47
:10A4200000D110BD0169C068A3689847002363602C
:10A43000F7E7000070B504000D00036842689B1A3E
:10A44000002B05DD22696368591C6160D55470BD1D
:10A45000014B9847F6E7C04619A40000F8B506007E
:10A460000C00002A08D08D18044F002161563000DE
:10A47000B8470134A542F8D1F8BDC04635A4000064
:10A48000024A1368013313607047C0461C02002063
:10A49000642343800023037043707047F0B5C646C1
:10A4A00000B5ACB00D006E461D4B6A4692CB92C211
:10A4B0006B884365143004002B789B009959170072
:10A4C0001000184B98470020174B9847174B1B7AE2
:10A4D000DBB2D84080466988FA200002144B9847C6
:10A4E00001004046134B984778600523FB722B7898
:10A4F0009B0099593A0020000F4B98476A78083220
:10A50000D2B20E4920000E4B984769780831C9B283
:10A5100020000C4B98472CB004BC9046F0BDC046C0
:10A520005C170100098A00006DED00000004004086
:10A53000CDFA0000B9F90000558B000081A400009D
:10A54000618F0000798F00004269022193681942EF
:10A55000FCD1136802210B431360704770B50400EF
:10A560000578E80702D50120404270BD61602900EE
:10A57000022081432170A260616D1800044B98474E
:10A58000E06023780122134323700020EDE7C046EA
:10A59000B9F9000070B58B005D18AD00295C02268A
:10A5A000314329544419416D1000034B9847034B24
:10A5B0001B68C018206170BDB9F900001C020020A2
:10A5C0008B00591889000B5C022293430B5470478F
:10A5D00070B504000378DB0707D503789B0704D523
:10A5E000104B1A6803699B1A00D470BD03785B078F
:10A5F000FBD4037804210B430370C368002B0BD0FA
:10A60000D2180261A268002120006568A84723785B
:10A61000042293432370E8E7027802218A43027000
:10A62000F0E7C0461C020020F0B5DE4657464E4615
:10A630004546E0B591B005000C0016002960080001
:10A64000BC4B9847020023680520DB0706D511B0F4
:10A650003CBC90469946A246AB46F0BD23681730F5
:10A660009B07F4D4B449086A971C0123BB400343F9
:10A670000B620FA92D27F35D0B701432D3B2029336
:10A680001800AE4B98470298AD4B9847F05D0021FB
:10A69000AC4B9847F37A6B712423F35CAB712523A1
:10A6A000F35CEB71F37E2B72337F6B722B689846F1
:10A6B0001800A04B9847143000220E2306A98C46A0
:10A6C00063441A80328A02928023DB019A4200D1CD
:10A6D0009EE00FD9C023DB01029A9A4200D192E09A
:10A6E00080231B029A4200D01FE10323069300231C
:10A6F000079308E080239B019A4200D015E11023C4
:10A7000006930F3B079333680593F36803937369CC
:10A710000493337E9B462623F35C9A4673689946DE
:10A72000002B00D1A0E080235B05994500D184E097
:10A73000737E002B02D0B37E424693732A68029F39
:10A74000D369002BFCD10E3306AA944663441B88C0
:10A7500042469381059B039A1343049A13434A4646
:10A7600013431F435B461B021F4353465B071F43B4
:10A770002723F35C002B01D104331F43737E9B021C
:10A78000327F52021343727F120213432422B25CBF
:10A79000520413432522B25C12041343B17AF27AB5
:10A7A000114319433389FF2B00D181E080225204E9
:10A7B000174319432C23F35C002B03D1624B9B7886
:10A7C0009B0701D580231F432A68D369002BFCD146
:10A7D000434659602A68D369002BFCD143461F6069
:10A7E0000EAB80221A7000225A70DA709A70336BA6
:10A7F0000A93736B0B93B36B0C93F36B02930D93F0
:10A8000000270AAE63E008230693073B07937AE725
:10A8100033680593F368039373690493337E9B460F
:10A820002623F35C9A4673689946002B18D0802340
:10A830005B05994501D0002025E02723F35C002B20
:10A8400000D075E7336A1F00C0B2404B9847010043
:10A850000E2206AB9C46624438003D4B984712E0FE
:10A8600008230693002307932723F35C002B0ED0C5
:10A87000069B0093079B0E2206A98C466244B16A90
:10A88000306A344FB847002800D0E0E650E7336A1A
:10A890001F00C0B22D4B98470100069B0093079BF9
:10A8A0000E2206A88446624438002A4FB847EAE7D9
:10A8B000F37E002B00D17DE78023DB041F4379E783
:10A8C0002000254B984707E00137042F0DD0F9B23F
:10A8D000BB0098590028F3D0431CF5D00EA908708E
:10A8E000000CC0B21D4B9847EEE70023EB602B61D4
:10A8F0006B61AB61EB612B62AB626B620022EB853B
:10A90000AB853033EA540133EA540133EA5401335E
:10A91000EA542868074B984704001149114B98479F
:10A92000A400114BE550002091E61023069300236C
:10A930000793E8E6719300000004004085EE0000F4
:10A94000F9ED0000AD91000000200041A1EE0000F3
:10A95000EF90000019910000F99100007DEF0000D8
:10A9600009AA0000F9B300007C030020C2791C236F
:10A97000002A01D118007047C28D92B2173B002AFD
:10A98000F8D10368DA69002AFCD1198502211A7E00
:10A990000A42FCD00023EDE782791C23002A01D172
:10A9A00018007047828D92B2173B002AF8D10268D6
:10A9B000107E4007F4D5D369002BFCD1538BDBB25A
:10A9C00098061DD0980703D5022353831833E7E771
:10A9D000580703D5042353831A33E1E7D80703D577
:10A9E000012353831233DBE7D80603D510235383A7
:10A9F0003233D5E79B0603D5202353832133CFE79A
:10AA0000138D0B800023CBE7F8B58000624BC5584F
:10AA10002C68E369002BFCD1237EA67D1E403023E9
:10AA2000EB5C3122AF5C1F40F30722D5EB8D9BB26C
:10AA3000002B1CD0AA6A1378DBB2511CA962697979
:10AA400001290ED09BB2DB05DB0D2385EB8D013B8D
:10AA50009BB2EB85002B0CD1013323750133A37519
:10AA600007E0517809020B430232AA62EBE70123A7
:10AA70002375B30706D50223237500223133EA5428
:10AA8000FB071AD4730765D5AB8D9BB2002B5FD043
:10AA9000638BDBB21A0714D43F221340002B34D04F
:10AAA0009A0711D51A223223EA54303B63837B077D
:10AAB00050D528006B6998474CE02800EB68984710
:10AAC000E0E737221340E9E75A0705D51E22322373
:10AAD000EA542E3B6383EAE7DA0705D513223223D3
:10AAE000EA54313B6383E2E7DA0605D5422232239A
:10AAF000EA54223B6383DAE720221A42D7D021327C
:10AB00003223EA54123B6383D1E7238DDB05DB0D4F
:10AB1000DAB2696A0A706A6A511C69626979012944
:10AB200010D0AB8D013B9BB2AB85002B12D104330F
:10AB3000237500222E33EA54BB070BD528002B695E
:10AB4000984707E01B0A53706B6A01336B62E8E7B2
:10AB500004232375F30604D5102323752376FB06FF
:10AB60000ED4B30604D52023237523763B070BD4DC
:10AB7000330704D5082323752376BB0608D4F8BD14
:10AB80002800EB699847ECE72800AB699847EFE7A6
:10AB90002B6A28009847F2E77C030020F0B58BB0C1
:10ABA00005000C00160029600B681C209B0701D5CE
:10ABB0000BB0F0BD0B681738DB07F9D408006F4BFA
:10ABC00098476F4A116A871C0123BB400B431362ED
:10ABD00009A92427F35D0B701430C3B20193180048
:10ABE000684B98470198684B9847F05D0021674B88
:10ABF00098473378012B3FD03378002B03D123685B
:10AC00000822134323602B000C3329002831002233
:10AC100004C38B42FCD10023EB62AB620024AB8601
:10AC20002B863633EC540133EC540133EC54353B72
:10AC30006B722C712868514B984707005449554B4B
:10AC40009847BF00544BFD502F6804AB80221A7008
:10AC50005C707F3A9A70DC703378002B02D100224E
:10AC600004AB9A70B36A0593F36A0693336B079348
:10AC7000736B089300240BE023680C2213432360BA
:10AC8000BAE73800454B98470AE00134042C10D04D
:10AC9000E1B2A30002AA0C201218D0580028F0D06C
:10ACA000431CF2D004A90870000CC0B23C4B98477A
:10ACB000EBE733786B71337CAB71B37CEB71337D35
:10ACC0002B72002202ABDA803378012B12D033785A
:10ACD000002B26D1B069B28B7B6AF17F0904B47F67
:10ACE0002143194379622023F35C002B1BD04023BE
:10ACF0001A4318E02868214B98471430C0B2294BFA
:10AD00009847010002AB9A1DB069274B9847030092
:10AD10001720002B00D04BE702AB06331B783B73A8
:10AD2000D5E7002200207368B1680B43F1680B433C
:10AD30000343317C0A43717C002903D11B49897884
:10AD4000890701D580210B43B17C002902D08021E5
:10AD500089020A43F17C002902D0802189000A433C
:10AD6000317D002902D0802189010A4339680B43D3
:10AD70003B607B681A437A60002019E771930000FA
:10AD80000004004085EE0000F9ED0000AD910000E8
:10AD9000D1B10000F9B300007C030020F99100005C
:10ADA0007DEF0000A1EE0000EF90000000200041C8
:10ADB000F0B5D6464F4680B583B08C463825465D03
:10ADC000333D052E75D01235002A72D0C479053571
:10ADD000002C6ED04479002C03D10468257EA9078D
:10ADE0000AD4013A94B2002604220221894601279E
:10ADF000DB05DB0D9A4637E002252576F1E7016891
:10AE00000B7E3B42FCD00B7E3B4209D053468B620B
:10AE10002DE00B7E4D462B4238D10B7E134245D0A0
:10AE200001680B7E1342FCD00B7E134240D04B8B4B
:10AE300000250195134202D04A831E230193837992
:10AE4000012B27D08B6ADBB20199002937D1751C01
:10AE5000ADB261468B55817901291FD02E00013C8E
:10AE6000A4B2184B9C421FD04379012BC7D0437921
:10AE7000002BD5D101680B7E1342CAD1124B0D7E37
:10AE80001542C6D1013B002BF9D1C2E702230B7654
:10AE900004250EE08B6ADB05DB0DD5E70236B6B282
:10AEA0001B0A61464B55DAE7019D02E0122500E0DE
:10AEB0001025280003B00CBC91469A46F0BD019DB8
:10AEC000F7E7C046FFFF00001027000010B54479E7
:10AED0001523012C01D0180010BD047A0023002C8A
:10AEE000F9D1002A58D04B78002B44D003681B7E40
:10AEF000DB0710D40A78D1090023002904D15309B3
:10AF0000DB012E498C4663441F21114001228A40F7
:10AF10009A610523DFE70A78D4090023002C04D1C5
:10AF20005309DB01254CA44663441F24144001222D
:10AF3000A2405A6103681A7ED20701D58A789A62C4
:10AF4000C2790023002AC6D102680421137E0B4275
:10AF5000FCD0117E00234907BDD5538B5B0701D57B
:10AF6000042353838379012B02D0936A0023B2E731
:10AF7000936A0023AFE70A78D1090023002904D19E
:10AF80005309DB010D498C4663441F211140012206
:10AF90008A405A6100239EE70A78D10900230029DC
:10AFA00004D15309DB0105498C4663441F2111403C
:10AFB00001228A409A6100238DE7C0460044004187
:10AFC000F0B5DE4657464E464546E0B583B03823D9
:10AFD000C45C333B052C02D01233002A07D1180081
:10AFE00003B03CBC90469946A246AB46F0BD4379BF
:10AFF000002B03D103681C7EA4070AD493460024C7
:10B0000001230225AC460235A846013A92B28A468F
:10B0100023E002241C76F1E7357E61460D422ED1F5
:10B02000357E1D4200D1C2E00668357E1D42FCD04F
:10B03000671CBFB251460D5D8179012923D0ADB2A5
:10B040003C00377E1F4202D0ED05ED0DB562551E66
:10B05000ADB2C679002E1DD12A005A4DAA4270D039
:10B060004579002DE0D10668357E1D42D4D1564D7C
:10B07000377E1F42D0D1013D002DF9D1CCE702230C
:10B0800033760233ABE70234A4B25146CF5D3F02C0
:10B090003D43D6E751464579002D37D14B4D0191BF
:10B0A00012E00234A4B24946019F795C0902009F74
:10B0B0000F431BE0013A92B20668377E41460F42C9
:10B0C0001BD1013D002D18D0002AF5D00668377E2F
:10B0D0001F42F1D0671CB9B289460199095D009100
:10B0E00081790129DDD069460F884C46317E1942AD
:10B0F000E0D0FF05FF0DB762DCE70199357E6746BA
:10B100003D4218D1357E4646354252D00668357EDE
:10B1100047463D42FBD0357E3D4207D0758B3D42D0
:10B1200000D077838579012D09D0B56A5D46013D50
:10B13000ADB2AB4669E70223337602334FE7B56A17
:10B14000F4E74379012B0BD0002B34D1C279002ACC
:10B1500000D144E704245B465D46002B19D13EE74D
:10B16000016802220B7E1342FCD0002337E70B7EDE
:10B17000234222D00B7E234207D04B8B234200D0A8
:10B180004C838379012B10D08B6A013DADB2002D29
:10B1900015D001680B7E2342E9D10B4B0A7E224277
:10B1A000E5D1013B002BF9D1E1E78B6AEDE71223F2
:10B1B00015E7122313E7002311E712230FE70023FB
:10B1C0000DE7C046FFFF0000102700001127000018
:10B1D000F8B58000854BC45826683723E35C3622D7
:10B1E000A75C1F40337EB57D1D40EB072ED56379EC
:10B1F000012B25D0002B29D1637A002B26D0216882
:10B20000E26A1378DBB2501CE062A079012800D119
:10B2100069E09BB2DB05DB0D8B62A38E013B9BB229
:10B22000A386A38E9BB2002B10D101333375637AB2
:10B23000012B0BD1E379002B08D10233B37505E064
:10B24000637A002B3ED0637A002BD8D16B0711D5DF
:10B25000738B5B0751D5637A012B08D01E223823EC
:10B26000E254353B6372023333753B0741D4B36A12
:10B2700004237383AB0715D56379002B0ED10733F5
:10B280003375053B3376013363720023A38623862F
:10B2900038330022E254FB0600D57FE06379012BAE
:10B2A00000D17FE02B0708D56379002B05D1083347
:10B2B00033753376BB0600D58AE06DB2002D00DA17
:10B2C0008AE0F8BD4A4B1B88B362638E013B9BB298
:10B2D0006386638E9BB2002B01D101333375637992
:10B2E000012BB0D086E75078000203430232E262BD
:10B2F00090E72000A3699847B9E7637A012B27D02C
:10B3000023689B6ADB05DB0DDAB2A16A0A70A26AC8
:10B31000511CA162A179012933D0238E013B9BB23C
:10B320002386238E9BB2002BA4D100223833E25413
:10B33000343B3375637A022B29D0637A002B00D01B
:10B3400098E7BB0700D495E720002369984791E769
:10B3500023689B6A638E013B9BB26386638E9BB2BC
:10B36000002B00D086E70433337500223433E254D7
:10B37000353B6372FB0700D47CE72000E368984705
:10B3800078E71B0A5370A36A0133A362C5E77B0702
:10B3900000D46FE72000636998476BE72000E369FA
:10B3A00098477BE7637A012B00D086E7E379002B8F
:10B3B00000D082E7023333750133637200223533E4
:10B3C000E254FB0700D46DE72000E368984769E783
:10B3D0002000236A984770E78023337533767B0615
:10B3E00000D46EE7636A200098476AE77C03002078
:10B3F0007803002070470000F0B50A4B1B78002B43
:10B400000CD1094F094E0A4D0024DE515A1914601F
:10B410000433182BF9D10122024B1A708000024B21
:10B42000C150F0BD2002002024020020F5B300002E
:10B430007C03002000B583B009236A4613700133F2
:10B440005370013393700133D3700133137101339F
:10B450005371034B98476B46185603B000BDC04666
:10B460007193000010B5024B1B680020984710BD77
:10B470002402002010B5024B5B680120984710BDE4
:10B480002402002010B5024B9B680220984710BD93
:10B490002402002010B5024BDB680320984710BD42
:10B4A0002402002010B5024B1B690420984710BDF0
:10B4B0002402002010B5024B5B690520984710BD9F
:10B4C000240200201723002A01D0180070478B00A7
:10B4D000064A9B58002B03D0834205D01D23F4E776
:10B4E000890088500023F0E70023EEE71C030020CA
:10B4F0001723002901D01800704700221F2800D808
:10B50000024A01238340D3600023F4E7001800407F
:10B510001723002901D01800704700221F2800D8E7
:10B52000024A0123834093600023F4E7001800409F
:10B5300070B50022104B1A70002310491F25104EC1
:10B540000D4C0AE00D4908E023780133DBB223708B
:10B550000F2B10D800211F2BF4D9280018400122EE
:10B56000824008691042EFD00A619B009B59002B72
:10B57000EAD09847E8E770BD940300200018004027
:10B580001C03002070B50020084B98470500084CAC
:10B59000FA218900A047074B186007492800A047F7
:10B5A000064B18600522064B1A6070BD6DED000059
:10B5B000B9F900000000002040420F000400002004
:10B5C00010E000E030B5084B1C68084A00258021D7
:10B5D0004902013807D3002CFBD0546095601368F2
:10B5E0000B42FCD0F5E730BD0000002010E000E089
:10B5F00010B5034B1B68002B00D0984710BDC04608
:10B600003C02002070B5441E002804D0024D0120E9
:10B61000A847013CFBD270BDC5B50000F8B5084C89
:10B6200080277F0567618026360566616420054DA9
:10B63000A847A7616420A847A6616420A847F8BD71
:10B640000044004105B6000070B582B00023164AE0
:10B65000136001AC01256570A370257021001B20CB
:10B66000124EB04721001C20B04721002820B047CF
:10B670000F4B802252055A61802212055A610D4BF0
:10B680001B681D4203D00B4B1B689B0701D40A4B60
:10B6900098470A4B98470122094B1A70BFF35F8FF6
:10B6A00062B6002002B070BD3C0200201DE8000020
:10B6B0000044004110E000E085B500001DB6000028
:10B6C0000A00002010B584B00E4B186001AC2000B9
:10B6D0000D4B9847292301930023636001332372A4
:10B6E0000133E37221000920084B98470022092109
:10B6F0000748084B984700210920074B984704B09A
:10B7000010BDC0463C020020F18800000589000001
:10B71000F1B50000C5B40000F1B4000010B5002878
:10B7200004D100210920044B984710BD00210920B5
:10B73000024B9847F9E7C04611B50000F1B400008C
:10B7400030B591B0304C0E23237000236370A3708A
:10B7500001A901224A708B700A700E202B4B98476A
:10B760002278D1090023002904D15309DB0128499B
:10B770008C4663441F2111400122100088409861CB
:10B7800002AC2270002303930493C0218903059126
:10B7900023746374A274E27423752332A354183A99
:10B7A000002108A81B4B98471B4BA3621B4BE3626D
:10B7B00001235B4223631A4B63631A4BA36122008C
:10B7C00019491A481A4B984700281AD1174D2C6866
:10B7D0002000184B98471F2318401E3B8340164AF1
:10B7E00013602A68D369002BFCD12368022213431B
:10B7F0002360124B98470120114B9847002011B04D
:10B8000030BD06204042FAE7980300201DE8000002
:10B8100000440041ABFD000002000C0002000D00DE
:10B8200002000F00001BB700001000429C03002024
:10B830009DAB000035B4000000E100E01DB6000043
:10B8400005B60000F0B5DE4657464E464546E0B523
:10B8500083B0032800D075E00E684D680C89002283
:10B860006B46DA71002D27D0002C65D0002E00D158
:10B8700077E00023984600239B4601223B493C4841
:10B880003C4B98473A4B9A46012704229946594621
:10B890004B4259418B46307853461B68197E3942DA
:10B8A000FCD0197E3942FCD09862197E1142FCD03E
:10B8B000494689798C4611E0002E3AD0002C3ED0C2
:10B8C0000023984601339B466B46DD1DD5E7604655
:10B8D00001280DD0986AC0B200290DD0197E1142FE
:10B8E000FCD0588B00211042F1D05A831E31EEE774
:10B8F000986AC005C00DEFE72870013CA4B25D4412
:10B90000434659424B41F618002CC4D1184B1968D4
:10B9100002220B7E1342FCD0002214491448154B1E
:10B920009847002003B03CBC90469946A246AB46DF
:10B93000F0BD0F204042F5E70F204042F2E70F2014
:10B940004042EFE70E22FF320B490C480C4B984760
:10B950000C480D4B98470D200C4B98470120404256
:10B96000E0E7012398466B46DE1D84E7980300203C
:10B970009C030020CDAE000068170100781701007D
:10B980000DFF00008C1701002900010041FF00009D
:10B9900030B583B001AB00221A709A705A70134D03
:10B9A0002C682000124B98471F2318401E3B8340F1
:10B9B000802210498B502A68D369002BFCD18F3329
:10B9C00023752376236802229343236001A90C2068
:10B9D000094CA04701A90F20A04701A90D20A047AD
:10B9E00001A90E20A047002003B030BD9C03002019
:10B9F00035B4000000E100E01DE80000002A06D098
:10BA000082180B780370013001319042F9D17047F0
:10BA1000002A04D08218017001309042FBD1704797
:10BA200003000278002A07D00020013080B20133E1
:10BA30001A78002AF9D170470020FCE7024AD3782F
:10BA40000133DBB2D3707047D80300207047000089
:10BA500000B583B000220A4B9A700120094B984729
:10BA600001A90948094B9847002801D003B000BD3F
:10BA70000221019B194301910348054B9847F5E7C3
:10BA8000D80300201DB700007010000059CE000040
:10BA900065CE000010B50C4B9B780020002B0DD11B
:10BAA000094B5B78002B03D1074B1B78002B06D189
:10BAB000054A53780133DBB25370002010BD034BAD
:10BAC00098470028F4D0F9E7D803002041CB0000C4
:10BAD000054B5B78002B04D0034A5378013BDBB263
:10BAE000537000207047C046D803002010B50B4BA0
:10BAF0005B78002B04D0094A5378013BDBB25370CA
:10BB0000064B5B780020002B03D1044B1B78002BE5
:10BB100000D110BD024B9847FBE7C046D803002078
:10BB2000D9CA0000F0B5DE46574680B589B08346D5
:10BB30008A460192009310AB80CB1E8812AB1D8801
:10BB40007F220A4007AB5A70187008225A80002FD3
:10BB50003DD05A889219AA1892B25A80694B9847D8
:10BB6000041E00D0C1E00023059302AAD3800493F1
:10BB7000049B5A461A430492049A53461B021343E9
:10BB8000049307AB5B88049A1B0413430493049942
:10BB90005D485E4B9847041E57D100230493049BD5
:10BBA00002221343049304995948584B9847041EA2
:10BBB0004BD10022059202ABDA8006331B889BB280
:10BBC000544A934249D8544C544B9A4617E007AB19
:10BBD0005A8800998C46624492B25A80BEE701208E
:10BBE000D047049B9B0728D502ABDA88013292B27A
:10BBF000DA8006331B889BB2464A93422DD804A9AB
:10BC00004348A047002828D102AB06331B889BB2CB
:10BC1000F422FF329342E4D902AB06331B889BB275
:10BC200001329342DBD83E483E4B98473E483F4B5B
:10BC300098470D203E4B9847D1E705A93D48364B24
:10BC40009847041E09D0002305933B4B98472000DA
:10BC500009B00CBC92469B46F0BD059B002B3FD023
:10BC6000059B069307A94B889BB24B800698082238
:10BC7000324B9847041EE8D1069B08330693019B7C
:10BC8000002B0BD00698009A19002C4B9847041EE5
:10BC9000DBD1069B009A944663440693002F0ED096
:10BCA000069B009AAD1AED180695069832003900E9
:10BCB000224B9847041EC8D1069BF3180693059B98
:10BCC0009B000493049B02221343049304991C4891
:10BCD0000E4B9847041EB8D11A4B98470400B6E79C
:10BCE000184B984703246442B1E7CB22520016490F
:10BCF00016480C4B984716480C4B98470D200C4B98
:10BD00009847A4E795BA00008C10000065CE0000AB
:10BD100078100000E703000059CE000005B60000CF
:10BD2000A81A01000DFF0000B41A0100290001004B
:10BD300041FF000000041500D1BA0000D9CE000078
:10BD40006C100000EDBA0000C01701007817010068
:10BD5000C41A0100F0B5CE46474680B587B0CF4B38
:10BD60009846994680E0CD4B059A5A609D6004AF95
:10BD7000042239000598CA4B984704007B889BB27F
:10BD80007B80002833D104AB5B889BB29D4204D0FA
:10BD900004AB5B88EB1A042B39DC04AB1B78012B5A
:10BDA0004ED004AB1B78022B78D004AB1B78042B4D
:10BDB00000D190E004AB1B78062B00D1A8E004ABC7
:10BDC0001B78072B00D1BFE004AB1B78052B00D1FB
:10BDD000D6E0B44AB449B548B54B9847B548B64BD8
:10BDE00098470D20B54B98470624644216E1D222AD
:10BDF000FF32AD49AD48AE4B9847B148AE4B98477E
:10BE00000D20AE4B98470120AE4B984706E1ED223E
:10BE10005200A549A548A64CA04704A94A8892B259
:10BE20000B78DBB2497800912900A748A0470D2084
:10BE3000A24B98470120A34B984706246442EDE0AB
:10BE4000964BDB68002B1CD0944BDB6804AA50781F
:10BE5000C0B25188059A0832083989B298478F4B89
:10BE60009B78002B00D09CE04346DB78002B00D170
:10BE700058E14B46DB78013BDBB24A46D370934E28
:10BE8000D7E0F322520088498848894B9847904868
:10BE9000894B98470D20894B9847E0E77F4B1B69FA
:10BEA000002B0BD07D4B1B6904AA5078C0B251887F
:10BEB000059A0832083989B29847D0E7F72252002C
:10BEC00079497A487A4B984782487B4B98470D20AE
:10BED0007A4B9847C3E7714B5B69002B0BD06F4BD4
:10BEE0005B6904AA5078C0B25188059A08320839B3
:10BEF00089B29847B3E7FB2252006B496B486C4B01
:10BF0000984775486C4B98470D206C4B9847A6E7AF
:10BF1000624B1B6A002B0BD0604B1B6A04AA507843
:10BF2000C0B25188059A0832083989B2984796E715
:10BF30006A4A5D495D485E4B984769485E4B984741
:10BF40000D205E4B98478AE7544B9B69002B0BD022
:10BF5000524B9B6904AA5078C0B25188059A0832A6
:10BF6000083989B298477AE75E4A4F494F48504BA3
:10BF700098475D48504B98470D20504B98476EE7C7
:10BF8000464B5B6A002B00D169E7444B5B6A04AA0D
:10BF90005078C0B25188059A0832083989B298475A
:10BFA0005DE7524A40494148414CA04704AB1978EB
:10BFB000C9B25A78D2B24E48A0470D203F4B98479D
:10BFC0004C4B9847041E29D14EE7872292003649F0
:10BFD0003648374B98474848374B98470D20374BE2
:10BFE00098470224644219E0892292002E492F4882
:10BFF0002F4CA04703994148A0470D202F4B98474D
:10C000000C2464420AE03E4A27492848284B9847B6
:10C010003C48294B98470D20284B98473A4A3B49C2
:10C020002248234FB84721003948B8470D20234BF9
:10C03000984703A93748B047041EE4D1039BDB07A8
:10C04000D2D500201F4B98470123039999430391B0
:10C050003048314B9847041EE0D101220F4B9A70B3
:10C06000039B9D042D0DB0D00023059305A92B48FB
:10C07000164B9847041E00D175E6C822FF320A49C4
:10C080000A480B4B984726480B4B98470D200B4B03
:10C09000984701200B4B9847C0E7C046D8030020C3
:10C0A00071CE00000F020000CC17010078170100CC
:10C0B0000DFF0000281901002900010041FF0000C8
:10C0C000241801001DB700003C18010059CE0000E3
:10C0D0007C1801009C180100C0180100FF0100003D
:10C0E000E01801000602000004190100150200001A
:10C0F0004019010051BA00006C19010080190100BB
:10C100002D0200009C1901004A020000D417010012
:10C11000C01901007010000065CE000084100000FE
:10C1200000180100002007B00CBC90469946F0BDF5
:10C1300070B514001D00002803D0002901D0002A8A
:10C1400012D1002D02D0274B984770BD264A2749AF
:10C150002748284B98472848284B98470D20284BBC
:10C1600098470C204042F0E7264B9B689A421AD829
:10C17000244B5B68984226D38618224A53689268FB
:10C180009B189E421FD822001F4B98470028DCD1E5
:10C190001C4A536892689B189E4201D0002DD4D04F
:10C1A000104B9847D1E7194A10491148114DA8473B
:10C1B000144B9A6821001648A8470D20104B984749
:10C1C0000C204042C1E7134A08490948094B9847E7
:10C1D00011480A4B98470D20094B98470C204042C4
:10C1E000B3E7C04651BA00006B020000E41701003B
:10C1F000781701000DFF0000F0190100290001006F
:10C2000041FF0000D803002071CE0000730200003F
:10C21000101A010079020000581A010070B50400DC
:10C2200007281FD88300164AD3589F46154B19611B
:10C23000002070BD134BD9600020FAE7114B596103
:10C240000020F6E70F4BD9610020F2E70D4B196291
:10C250000020EEE70B4B99610020EAE7094B596299
:10C260000020E6E7084A094909480A4DA847210085
:10C270000948A8470D20094B98470C204042D8E7B1
:10C28000A0170100D8030020B1020000F017010040
:10C29000781701000DFF00009C1A010041FF00000B
:10C2A00010B5282200210648064B98470648074B40
:10C2B000984707490320074B9847002010BDC04608
:10C2C000D803002011BA00003DBA0000C5B6000036
:10C2D0004DBA00001DC2000030B59FB0040015002B
:10C2E0002C282FD01B283DD006284BD00E2827D035
:10C2F000322857D02F2865D0342800D177E0112874
:10C3000000D196E0132800D1ACE0042800D1BBE0B6
:10C31000652800D1CAE0092800D1D9E02A2800D137
:10C32000E8E0202800D1F7E09222520089498A48AB
:10C330008A4DA84721008A48A8470D20894B984775
:10C340001FB030BD0023042203A92800864CA0475B
:10C350000028F5D1854B1B68002BF1D003A92C30A8
:10C360009847EDE70023082203A928007E4CA04748
:10C370000028E5D17D4B1B68002BE1D003A91B30C1
:10C380009847DDE70123302203A92800764CA04717
:10C390000028D5D1754B1B68002BD1D003A90630DE
:10C3A0009847CDE70023142203A928006E4CA0472C
:10C3B0000028C5D16D4B1B68002BC1D003A93230BA
:10C3C0009847BDE76422002103A8694B98470023E2
:10C3D000642203A92800644CA0470028B0D1634B15
:10C3E0001B68002BACD003A92F309847A8E7002387
:10C3F000042203A928005C4CA0470028A0D15D4876
:10C40000564DA847039C230AFF200340220C0240FC
:10C41000210E204000905848A8470D20514B9847C6
:10C42000524B1B68002B00D18AE70021342098472B
:10C4300086E70022514B1A700023043203A928001A
:10C44000494CA047002800D07AE703AB1A784C4B40
:10C450001A70464B1B68002B00D171E703A91130FD
:10C4600098476DE700232C2203A928003E4CA047E3
:10C47000002800D064E73D4B1B68002B00D15FE72C
:10C4800003A9133098475BE7002304221CA9280066
:10C49000354CA047002800D052E7344B1B68002BD6
:10C4A00000D14DE71CA90430984749E70023042236
:10C4B0001CA928002C4CA047002800D040E72B4B9B
:10C4C0001B68002B00D13BE71CA96530984737E774
:10C4D0000123642203A92800234CA047002800D090
:10C4E0002EE7224B1B68002B00D129E703A9093056
:10C4F000984725E70123042203A928001A4CA047E6
:10C50000002800D01CE7194B1B68002B00D117E74F
:10C5100003A92A30984713E70023082203A928001B
:10C52000114CA047002800D00AE703AB9A882800E6
:10C530000830012303990C4CA047002800D0FFE6E7
:10C540000A4B1B68002B00D1FAE603A9203098475C
:10C55000F6E6C046E01A0100781701000DFF000062
:10C56000301B010041FF000031C1000040020020EB
:10C5700011BA0000A81A0100101B0100450200209A
:10C5800044020020F0B58FB001220F236B441A70D3
:10C59000002861D00268324B1A600022314B1A70B9
:10C5A0000F206844304B9847041E02D020000FB083
:10C5B000F0BD00202D4B9847041E49D12C49012085
:10C5C0002C4B984704AE30002B4B984704002B4867
:10C5D0002B4DA847B37972793179308C0090294876
:10C5E000A8470D20284FB8472448A84726226A4468
:10C5F0001A2169442548A8470D20B8471F48A84775
:10C60000737A327AF1792248A8470D20B8471B483F
:10C61000A8470223052213211E48A8470D20B8472A
:10C620001648A8471C4A1D491D48A8470D20B84771
:10C6300023000D33BAD1E822FF321A491A48104BB1
:10C6400098471A481A4B98470D200F4B9847ADE76B
:10C650000020184B9847A9E70C246442A6E7C0467F
:10C66000400200204502002025D00000A1C20000A9
:10C67000D9C200001DC2000041CF0000A81A01006D
:10C680000DFF0000EC1B010041FF0000141C010025
:10C69000301C0100541C01006C1C0100781C0100BE
:10C6A000841C0100EC1A0100781701009C1C010099
:10C6B00029000100F9D0000010B5014B984710BDCA
:10C6C00055BD0000F0B5CE46474680B5A3B00590F5
:10C6D0000C0015001F002AAB1B8899462BAB1B785A
:10C6E0009846012A03D0002F40D0022A4CD0631E66
:10C6F0001F2B00D978E04B46013B9BB20D2B03D991
:10C700004B46FF2B00D07DE007AE220005995A2052
:10C7100002AB9C466044784B98473419463400235A
:10C72000237044334A46F25243465A1E93416722CD
:10C73000B3544123F554032D00D172E0022D00D1F2
:10C74000ABE0042D00D1C3E0012D00D0C6E00023F2
:10C750000293019300936C3307AA28210120674CB0
:10C76000A04723B00CBC90469946F0BD644A654989
:10C770006548664B98476648664B98470D20664B60
:10C7800098470C204042ECE73800644B984740281B
:10C79000ADD13B781A00303A362A17D80A3A062A21
:10C7A00014D9473B192B11D97A1C38004030137823
:10C7B00019003039362909D80A39062906D9473BE4
:10C7C000192B03D901328242F1D190E7544A4D49E5
:10C7D0004D484E4B984753484E4B98470D204E4B73
:10C7E00098470C204042BCE74F4A46494648474BD1
:10C7F00098474E48474B98470D20474B98470C2089
:10C800004042AEE78D2292003E493F483F4B984759
:10C810004748404B98470D203F4B98470C204042DB
:10C820009FE73B78013BDBB207AA1370032B17D8B5
:10C830007A78511E07AB59701023110099430B29C8
:10C840001DD03C4A2F493048304CA04707AB59789F
:10C850003948A0470D20304B98470C20404280E7D4
:10C86000364A28492848294CA04707AB197834484C
:10C87000A0470D20284B98470C20404271E7B91C77
:10C88000162002AB9C4660441B4B98477B7807AA56
:10C890009446634400229A7059E738001F4B98472A
:10C8A000431E9BB23F2B05D8421C390007A8124BF0
:10C8B00098474CE7234A13491348144B984722489A
:10C8C000144B98470D20144B98470C20404248E7E2
:10C8D0003E22390007A8084B984738E71B4A094908
:10C8E00009480A4B98471A480A4B98470D200A4BAB
:10C8F00098470C20404234E7FDB9000025BB0000FA
:10C9000015020000FC1A0100781701000DFF00005D
:10C91000441B01002900010041FF000021BA000072
:10C9200021020000581B01002B020000641B0100C3
:10C93000781B010052020000A01B01004B02000006
:10C94000841B010061020000BC1B01007102000099
:10C95000D81B010030B583B006AC248800250195B2
:10C960000094024CA04703B030BDC046C5C60000CD
:10C9700000207047F0B583B080256D000543A524E5
:10C980006401084F084E29002000B8470023019396
:10C9900001A92000B0470028F5D1019B9D42F2D1AA
:10C9A00003B0F0BD65CE000059CE000000B583B0E5
:10C9B0000023019301A91148114B9847002801D089
:10C9C00003B000BD80214900019B194301910B4830
:10C9D0000C4B98470028F3D101A9D0204001084B07
:10C9E00098470028ECD180214902019B194301910D
:10C9F000D0204001034B9847E2E7C04608140000EE
:10CA000059CE000065CE000010B582B0284B1C68DE
:10CA1000002C04D0264B1C68200002B010BD190069
:10CA200080204001234B9847002803D00022204B50
:10CA30001A60F1E701A920481E4B9847002803D04F
:10CA400000221B4B1A60E7E7194B1B681B4A9342F5
:10CA50000ED01B4A934212D01A4A93421CD014495A
:10CA6000194A0B681A40A023DB0213430B60D1E77D
:10CA7000019B012BF3D0154A0D4B1A60EFE7019B88
:10CA8000032BECD0042B03D0114A094B1A60E6E7C4
:10CA9000104A074B1A60E2E70549EC208003054B7A
:10CAA00098470028DBD00022014B1A60B4E7C0464B
:10CAB0004802002059CE0000F4130000A00210002C
:10CAC000B0021000F0001000FFFFF0FFA102100004
:10CAD000B2021000B102100030B583B0164C01252F
:10CAE00001A91020A04700281CD1019B2B42F7D19F
:10CAF00001A90130104B9847002813D101998B07E9
:10CB000007D502239943019101300C4B9847002827
:10CB100008D101A90B20084B9847002802D10199A0
:10CB2000CB0701D403B030BD0123994301910B30F1
:10CB3000024B9847F6E7C04659CE000065CE00008C
:10CB4000F0B583B000230193009301A90B20284B7B
:10CB50009847041E30D10199CB0706D4012319430D
:10CB60000B20244B9847041E26D101A90120204BFD
:10CB70009847041E20D101998B0720D505251C4F0D
:10CB80001D4E69460F20B847041E20D1009B5B074D
:10CB90002BD40220B047013D002DF2D1AF2252002C
:10CBA00016491748174B98471748184B98470D20B8
:10CBB000174B984704246442200003B0F0BD0223C1
:10CBC000194301200B4B9847041ED7D0F4E7AA2243
:10CBD00052000A490A480B4DA847009A21000D4807
:10CBE000A8470D200A4B9847E6E70B4B9847E3E729
:10CBF00059CE000065CE000005B60000B81C01004B
:10CC0000781701000DFF0000001D01002900010040
:10CC100041FF0000E81C010041CE0000F8B507000C
:10CC20002D4D2E4C2E4E2800A047002802DB01205F
:10CC3000B047F8E72B48294B9847C30709D4284E3B
:10CC4000294C264D0120B0472000A847274B984289
:10CC5000F8D1022F21D0032F29D0042F30D024491E
:10CC60002448254B98470024244B98470005000D85
:10CC7000234B98422AD82000224B98472248234C25
:10CC8000A0471B492248A0470D20224B9847224924
:10CC90001548194B98470020F8BD20492048164CEC
:10CCA000A047802149031348A0470024DCE71B4923
:10CCB0001B48114CA04700210E48A0470024D3E791
:10CCC0000B490C480C4B98478024CDE702202043A9
:10CCD0000C4B9847D2E7C046141000004DCE000020
:10CCE00005B60000BC0702000C000C009ED0AD1081
:10CCF000521352138C10000065CE000009CA0000C8
:10CD00009F03000075C90000A81A01000DFF000074
:10CD10001C1D010041FF0000612F52EF7DD51C3C1E
:10CD2000AC07020070B582B0154B0193154B009310
:10CD30000238012811D9012464420020124E134DFB
:10CD4000009B98420ED00220B0470198A847013CB2
:10CD5000002CF5D10520404209E00D4B01930D4B0D
:10CD60000093E8E7009A074B00209A4201D002B0F6
:10CD700070BD00210248084B98470020F7E7C046E5
:10CD80008C1000003626530205B600004DCE000080
:10CD9000AC070200C3C15DD765CE000010B582B0FC
:10CDA0000023019301A9A0204001144B9847041EC1
:10CDB00015D11349019B19400191A0204001114B4D
:10CDC0009847041E16D0104A10491148114B984735
:10CDD0001148124B98470D20114B98470AE0114A11
:10CDE0000A490B480B4B98470B480C4B98470D20B2
:10CDF0000B4B9847200002B010BDC04659CE000032
:10CE0000FFFBFFFF65CE00000B020000C41C010009
:10CE1000781701000DFF0000D01C0100290001005F
:10CE200041FF00000502000010B5014B984710BDFE
:10CE300041B7000010B5014B984710BD91B90000F3
:10CE400010B5014B984710BDF1D7000010B5014B4C
:10CE5000984710BD29D8000010B5014B984710BD68
:10CE60003DD8000010B5014B984710BD55D80000C3
:10CE7000F0B5D6464F464646C0B582B08046894694
:10CE80001500134B1F88083FBBB201931E0004001E
:10CE90009A421AD90F4B9A46371A4346E11A494427
:10CEA000019A2000D047002809D1AD1B3919A419D7
:10CEB000B542F2D8AAB249442000064B984702B0C6
:10CEC0001CBC90469946A246F0BD0021F2E7C04640
:10CED0000800002099D90000F0B5D6464F464646D6
:10CEE000C0B582B0804689461500134B1F88083FA5
:10CEF000BBB201931E0004009A421AD90F4B9A4606
:10CF0000371A4346E11A4944019A2000D0470028C5
:10CF100009D1AD1B3919A419B542F2D8AAB24944B6
:10CF20002000064B984702B01CBC90469946A2468A
:10CF3000F0BD0021F2E7C04608000020F5DA00004D
:10CF400070B584B00400002303930822002101A8D7
:10CF50002D4B9847002C44D02822002120002B4B39
:10CF6000984703A92A482B4B984700283AD1039B9E
:10CF7000002B39D0C02080021843082201A9264B7B
:10CF8000984700282ED1029B1804000C03902ED045
:10CF9000C0239B021843282221001F4B98470028DA
:10CFA00020D121790902A2790F231A400A4361791D
:10CFB0000901FF2529400A43E1790902667A3340D5
:10CFC0000B43217A09010D402B43002A12D0002B7C
:10CFD00013D012498B4213D8114B9A4202D80D3804
:10CFE00000E0002004B070BD0C204042FAE70C20A5
:10CFF0004042F7E70C204042F4E70C204042F1E7C2
:10D000000D204042EEE7C046ABFD000011BA000023
:10D0100008000C0059CE000071CE00005213000031
:10D020005113000070B5002837D005786B1E032B14
:10D0300000D901250020204B9847041E2FD11F48FE
:10D040001F4CA0471F4B984701001F48A0470D20C9
:10D050001E4B98471E4B984728001E4B9847041EAE
:10D0600017D128001C4B9847041E12D1023D012DF8
:10D0700011D91A4B9847041E0DD05622FF32184979
:10D0800018480F4B98471848184B98470D200F4BDE
:10D090009847174B9847200070BD0125CAE7282202
:10D0A000FF320F490F48064B984712480F4B9847DD
:10D0B0000D20064B9847EEE729CE0000A81A010084
:10D0C0000DFF000009CA0000EC1D010041FF000037
:10D0D0006DD800001DCC000025CD0000ADC90000BA
:10D0E000341D010078170100B01D01002900010066
:10D0F00035CE0000D01D010010B51C4B9847041E12
:10D100000BD100201A4B9847041E14D1194B984795
:10D11000041E1DD1184B98470BE0B6225200174948
:10D120001748184B98471848184B98470D20184B2C
:10D130009847200010BD7422FF3210491048114B4F
:10D1400098471448114B98470D20114B9847F0E72A
:10D150007A22FF3209490A480A4B98470E480B4B7E
:10D1600098470D200A4B9847E3E7C0469DCD000045
:10D170008DE6000035CE000019D80000401D0100EA
:10D18000781701000DFF0000501D0100290001006B
:10D1900041FF0000701D0100941D010000B585B025
:10D1A00001AB019000220292198119000320024B69
:10D1B000984705B000BDC04645B8000070B584B0C2
:10D1C00008AC257801AC20703F30C4B20E2C00D9D9
:10D1D00084E0A0004F4C2058874601AB0A0C5A70DF
:10D1E0000A0A9A70D97005214B4B1B78002B77D017
:10D1F0000139C9B283E00B0ADBB2002D07D101AAC5
:10D20000537001AB99700022DA700521ECE780229F
:10D210005242134301AA5370F3E701AB00225A7044
:10D220009A70DA700521DFE701AB00225A709A701C
:10D23000DA700521D8E701ABFF225A709A70DA70D4
:10D240000521D1E701AA080C5070080A9070D1702E
:10D25000190A117153710721C6E701AA080C507011
:10D26000080A9070D170190C1171190A51719371DB
:10D270000821B9E70B0ADBB2002D0CD101A84370DD
:10D2800001AB9970110ED970110C1971110A5971F5
:10D290009A710821A8E780204042034301A8437007
:10D2A000EEE701AB080C5870080A9870D970110E9F
:10D2B0001971110C5971110A9971DA71092193E7E9
:10D2C0002822FF3215491648164B98471648174B27
:10D2D00098470D20164B9847002317E0002315E0D0
:10D2E0004E1E01AA95197F23124C5B001078434013
:10D2F000E35C0132AA42F8D15B0001AA935589B2DE
:10D3000001A80D4B984701230028D9D1180004B07B
:10D3100070BDC046FC1D01004C0200203C1E0100F7
:10D32000781701000DFF0000CC2201002900010048
:10D3300041FF0000C81E01009DD1000000B585B06E
:10D3400001AB002201920290198119000320024BC7
:10D35000984705B000BDC04645B80000F0B5C646C8
:10D3600000B582B00700CF282BD003003B33DBB2DF
:10D37000012B26D90B246B46DE1D264B9846012136
:10D380003000C047051E25D13378BB4230D0013C68
:10D39000E4B2002CF3D10B346B46DE1D1D4F01218E
:10D3A0003000B847002825D13378002B2FD0013C1E
:10D3B000E4B2002CF3D10125280002B004BC904651
:10D3C000F0BD01216B46D81D124B9847002500285F
:10D3D000D0D0F1E7B12252000F491048104B9847C6
:10D3E0001048114B98470D20104B98470025E3E754
:10D3F0000B24D1E7B822520007490848084B984748
:10D400000848094B98470D20084B9847D4E7012559
:10D41000D2E7C0463DD30000541E0100781701003A
:10D420000DFF0000F82201002900010041FF00006B
:10D43000F0B5DE4657464E464546E0B587B001900A
:10D440008946029200239A4680239B019B466A46A6
:10D45000D3813B4B98462EE03A4A3B493B483C4BF4
:10D4600098473C483C4B98470D203C4B984700253B
:10D47000280007B03CBC90469946A246AB46F0BD9A
:10D48000002C2EDD019B5344180039002C4B98478B
:10D49000041E33D1029B002B03D1314B1B78002B90
:10D4A00039D05346FB181BB29A464B46DF1BBBB222
:10D4B0009946002B42D04F46D94501D96B46DF89AA
:10D4C000BFB20A2404ABDE1C01213000C047051E98
:10D4D000C2D133781B090F2BD2D0013C24B2631C7C
:10D4E000F2D1204A18491948194CA04704ABD97801
:10D4F0001D48A0470D20194B9847B9E7C522920057
:10D5000011491248124B98471848134B98470D2061
:10D51000124B9847ACE7022105A8094B9847002811
:10D52000BFD0134A08490948094B984711480A4B8C
:10D5300098470D20094B9847250099E7012597E763
:10D540003DD30000FF020000601E010078170100BB
:10D550000DFF00002C2301002900010041FF000005
:10D560004C0200200B030000602301009023010007
:10D570001F030000C0230100F0B5D6464F464646C3
:10D58000C0B586B00390049130280FD8304B1F7877
:10D59000FBB205930023302203998A425B41DBB240
:10D5A0009A460A252B4B9846D14633E02A4B1F78E2
:10D5B000EEE70598294B98470400012841D0E7225F
:10D5C000920027492748284EB04703992748B0477B
:10D5D0000D20274B98470120264EB047002300938B
:10D5E00000220021CF201B4FB847CF201B4B98476C
:10D5F000214A1B491B481C4FB847049B039A29002A
:10D600001E48B8470D201A4B98470120B047013DEE
:10D61000002D16D04B4600930423049A039F390033
:10D620000598C04704000128C3D0154A0C490D488D
:10D630000D4EB04739001348B0470D200C4B9847AA
:10D64000C9E7200006B01CBC90469946A246F0BD32
:10D65000381E0100BDD10000391E01005DD300005D
:10D66000801E0100781701000DFF0000B8240100A2
:10D6700041FF000005B60000AF030000F0240100E8
:10D68000960300008C240100F0B5DE4657464E4656
:10D690004546E0B587B002908B46FF280FD8414B36
:10D6A0001F78FBB203930023FF2202998A425B4159
:10D6B000DBB29A460A253C4B9846D14631E03B4BBB
:10D6C0001F78EEE703983A4B9847040001283FD0B3
:10D6D000384A394939483A4EB04702993948B04733
:10D6E0000D20394B98470120384EB0470023009356
:10D6F00000220021CF202C4FB847CF202C4B984739
:10D70000334A2D492D482E4FB847029A29003148F7
:10D71000B8470D202C4B98470120B047013D002D04
:10D7200037D04B46009304230022029F3900039810
:10D73000C04704000128C5D0274A1F491F48204E72
:10D74000B04739002548B0470D201F4B9847CAE71E
:10D750004A46042105A8224B9847040001280BD013
:10D76000204A15491548164B98471F481F4B9847A4
:10D770000D20154B9847B6E705AA53781B02917800
:10D7800009040B4311780B43D278120613435A460F
:10D790001360200007B03CBC90469946A246AB46B9
:10D7A000F0BDC0463A1E0100BDD100003B1E010085
:10D7B0005DD300001D040000A01E010078170100C9
:10D7C0000DFF00002024010041FF000005B600000D
:10D7D0003C0400007424010017040000F42301003D
:10D7E00031D4000024040000542401002900010069
:10D7F00010B582B00023009300220021CF20044CFA
:10D80000A047CF20034B9847002002B010BDC04670
:10D81000BDD100005DD300000022024B1A70002031
:10D820007047C0464C02002000B583B001A9024BEE
:10D830009847019803B000BD89D6000010B5044B8D
:10D8400098470023012801D1180010BD063BFBE7D3
:10D8500089D6000010B5044B98470023012801D158
:10D86000180010BD063BFBE779D5000010B582B06B
:10D8700000230093354A137069463548354B984765
:10D88000002828D0314B1B78002B0DD17C33009918
:10D8900099432C3B194300912D482F4B9847041E68
:10D8A00039D00122294B1A7001A980204001294B4F
:10D8B000984700283BD0264C2000284B98477023DF
:10D8C00001009943502001432000254B9847002434
:10D8D000200002B010BD01221C4B1A70214A2249BF
:10D8E0002248234B98472348234B98470D20234B2E
:10D8F000984769461648174B9847041EC2D1204ADC
:10D9000019491A481A4B98471E481B4B98470D2037
:10D910001A4B9847DCE71C4A13491448144B9847A4
:10D920001A48154B98470D20144B9847D0E7184AD2
:10D930000D490E480E4B984716480F4B98470D203F
:10D940000E4B984706246442C2E7C0464C020020B2
:10D9500024E8000089D6000079D5000029D800000D
:10D9600055D80000C7040000BC1E01007817010054
:10D970000DFF0000C81F01002900010041FF000049
:10D98000CA04000018200100D40400004420010053
:10D99000DE04000078200100F0B5DE4657464E4612
:10D9A0004546E0B587B00290039116000A25002392
:10D9B0009B4600243E4B9846A94637E001239B46F0
:10D9C000013635E0C8203B4B9847012845D03A4AFC
:10D9D0003A493B483B4FB84702993B48B8470D206E
:10D9E0003A4B984701203A4FB84700942300220051
:10D9F0002100CF202E4DA847CF202E4B9847354AE7
:10DA00002E492F482F4B9A4698473300029A494691
:10DA10003148D0470D202D4B98470120B8470123AE
:10DA20005B429C46E1444B46002B38D0012EC5D0CA
:10DA3000009433002200029D2900C820C04701281D
:10DA4000C0D0264A1D491E481E4FB8472900244809
:10DA5000B8470D201D4B9847C4E75B46002B16D0F6
:10DA600005AF2200310038001E4B98473B78039ADF
:10DA70001370012811D01C4A10491148114B9847C6
:10DA80001A481B4B98470D20104B9847AAE72200D5
:10DA900031000398134B9847EBE7002001E0062084
:10DAA000404207B03CBC90469946A246AB46F0BD0A
:10DAB000BDD100005DD3000063040000B01E010072
:10DAC000781701000DFF0000CC20010041FF00008D
:10DAD00005B60000840400002C2101005D04000054
